{
  "_format": "hh-sol-artifact-1",
  "contractName": "TimeLockWallet",
  "sourceName": "contracts/TimeLockWallet.sol",
  "abi": [
    {
      "inputs": [
        {
          "internalType": "uint256",
          "name": "currentUnlockTime",
          "type": "uint256"
        }
      ],
      "name": "ActiveLockExists",
      "type": "error"
    },
    {
      "inputs": [],
      "name": "AmountZero",
      "type": "error"
    },
    {
      "inputs": [],
      "name": "LockTimeInPast",
      "type": "error"
    },
    {
      "inputs": [],
      "name": "NothingToWithdraw",
      "type": "error"
    },
    {
      "inputs": [],
      "name": "ReentrancyGuardReentrantCall",
      "type": "error"
    },
    {
      "inputs": [
        {
          "internalType": "address",
          "name": "token",
          "type": "address"
        }
      ],
      "name": "SafeERC20FailedOperation",
      "type": "error"
    },
    {
      "inputs": [
        {
          "internalType": "uint256",
          "name": "unlockTime",
          "type": "uint256"
        },
        {
          "internalType": "uint256",
          "name": "nowTime",
          "type": "uint256"
        }
      ],
      "name": "StillLocked",
      "type": "error"
    },
    {
      "anonymous": false,
      "inputs": [
        {
          "indexed": true,
          "internalType": "address",
          "name": "user",
          "type": "address"
        },
        {
          "indexed": true,
          "internalType": "address",
          "name": "token",
          "type": "address"
        },
        {
          "indexed": false,
          "internalType": "uint256",
          "name": "amount",
          "type": "uint256"
        },
        {
          "indexed": false,
          "internalType": "uint256",
          "name": "unlockTime",
          "type": "uint256"
        }
      ],
      "name": "Deposited",
      "type": "event"
    },
    {
      "anonymous": false,
      "inputs": [
        {
          "indexed": true,
          "internalType": "address",
          "name": "user",
          "type": "address"
        },
        {
          "indexed": true,
          "internalType": "address",
          "name": "token",
          "type": "address"
        },
        {
          "indexed": false,
          "internalType": "uint256",
          "name": "amount",
          "type": "uint256"
        }
      ],
      "name": "Withdrawn",
      "type": "event"
    },
    {
      "inputs": [],
      "name": "ETH_TOKEN",
      "outputs": [
        {
          "internalType": "address",
          "name": "",
          "type": "address"
        }
      ],
      "stateMutability": "view",
      "type": "function"
    },
    {
      "inputs": [
        {
          "internalType": "uint256",
          "name": "lockDurationSeconds",
          "type": "uint256"
        }
      ],
      "name": "depositETH",
      "outputs": [],
      "stateMutability": "payable",
      "type": "function"
    },
    {
      "inputs": [
        {
          "internalType": "address",
          "name": "token",
          "type": "address"
        },
        {
          "internalType": "uint256",
          "name": "amount",
          "type": "uint256"
        },
        {
          "internalType": "uint256",
          "name": "lockDurationSeconds",
          "type": "uint256"
        }
      ],
      "name": "depositToken",
      "outputs": [],
      "stateMutability": "nonpayable",
      "type": "function"
    },
    {
      "inputs": [
        {
          "internalType": "address",
          "name": "",
          "type": "address"
        },
        {
          "internalType": "address",
          "name": "",
          "type": "address"
        }
      ],
      "name": "deposits",
      "outputs": [
        {
          "internalType": "uint256",
          "name": "amount",
          "type": "uint256"
        },
        {
          "internalType": "uint256",
          "name": "unlockTime",
          "type": "uint256"
        }
      ],
      "stateMutability": "view",
      "type": "function"
    },
    {
      "inputs": [
        {
          "internalType": "address",
          "name": "user",
          "type": "address"
        },
        {
          "internalType": "address",
          "name": "token",
          "type": "address"
        }
      ],
      "name": "getDeposit",
      "outputs": [
        {
          "internalType": "uint256",
          "name": "amount",
          "type": "uint256"
        },
        {
          "internalType": "uint256",
          "name": "unlockTime",
          "type": "uint256"
        },
        {
          "internalType": "bool",
          "name": "isUnlocked",
          "type": "bool"
        }
      ],
      "stateMutability": "view",
      "type": "function"
    },
    {
      "inputs": [
        {
          "internalType": "address",
          "name": "user",
          "type": "address"
        },
        {
          "internalType": "address",
          "name": "token",
          "type": "address"
        }
      ],
      "name": "timeUntilUnlock",
      "outputs": [
        {
          "internalType": "uint256",
          "name": "secondsRemaining",
          "type": "uint256"
        }
      ],
      "stateMutability": "view",
      "type": "function"
    },
    {
      "inputs": [],
      "name": "withdrawETH",
      "outputs": [],
      "stateMutability": "nonpayable",
      "type": "function"
    },
    {
      "inputs": [
        {
          "internalType": "address",
          "name": "token",
          "type": "address"
        }
      ],
      "name": "withdrawToken",
      "outputs": [],
      "stateMutability": "nonpayable",
      "type": "function"
    },
    {
      "stateMutability": "payable",
      "type": "receive"
    }
  ],
  "bytecode": "0x608060405234801561001057600080fd5b5060017f9b779b17422d0df92223018b32b4d1fa46e071723d6817e2486d003becc55f0055610ac2806100446000396000f3fe60806040526004361061007f5760003560e01c80638f601f661161004e5780638f601f661461016b57806399c6d2de146101bc578063c35082a9146101dc578063e086e5ec1461025c57600080fd5b8063158f4992146100d65780635358fbda1461010957806358bc83371461011e578063894760691461014b57600080fd5b366100d15760405162461bcd60e51b815260206004820152601b60248201527f557365206465706f736974455448282920746f206465706f736974000000000060448201526064015b60405180910390fd5b600080fd5b3480156100e257600080fd5b506100f66100f136600461098f565b610271565b6040519081526020015b60405180910390f35b61011c6101173660046109c2565b6102bf565b005b34801561012a57600080fd5b50610133600081565b6040516001600160a01b039091168152602001610100565b34801561015757600080fd5b5061011c6101663660046109db565b6103ba565b34801561017757600080fd5b506101a761018636600461098f565b60006020818152928152604080822090935290815220805460019091015482565b60408051928352602083019190915201610100565b3480156101c857600080fd5b5061011c6101d73660046109fd565b610505565b3480156101e857600080fd5b5061023f6101f736600461098f565b6001600160a01b039182166000908152602081815260408083209390941682529182528290208251808401909352805480845260019091015492909101829052914282111590565b604080519384526020840192909252151590820152606001610100565b34801561026857600080fd5b5061011c61067d565b6001600160a01b038083166000908152602081815260408083209385168352929052908120600101544281116102ab5760009150506102b9565b6102b54282610a46565b9150505b92915050565b346000036102e0576040516365e52d5160e11b815260040160405180910390fd5b806000036103015760405163305b1b6560e11b815260040160405180910390fd5b33600090815260208181526040808320838052909152902080541580159061032c5750428160010154115b1561035257806001015460405163102a801160e11b81526004016100c891815260200190565b600061035e8342610a59565b825490915061036e903490610a59565b825560018201819055604080513481526020810183905260009133917ff5681f9d0db1b911ac18ee83d515a1cf1051853a9eae418316a2fdf7dea427c5910160405180910390a3505050565b6103c26107d9565b6001600160a01b0381166104185760405162461bcd60e51b815260206004820152601960248201527f55736520776974686472617745544820666f722065746865720000000000000060448201526064016100c8565b336000908152602081815260408083206001600160a01b03851684529091528120805490910361045b57604051630686827b60e51b815260040160405180910390fd5b806001015442101561048f57600181015460405163104d109160e21b815260048101919091524260248201526044016100c8565b8054600082556104a96001600160a01b03841633836107f5565b6040518181526001600160a01b0384169033907fd1c19fbcd4551a5edfb66d43d2e337c04837afda3482b42bdf569a8fccdae5fb9060200160405180910390a350506105026001600080516020610a6d83398151915255565b50565b6001600160a01b03831661055b5760405162461bcd60e51b815260206004820152601860248201527f557365206465706f73697445544820666f72206574686572000000000000000060448201526064016100c8565b8160000361057c576040516365e52d5160e11b815260040160405180910390fd5b8060000361059d5760405163305b1b6560e11b815260040160405180910390fd5b336000908152602081815260408083206001600160a01b038716845290915290208054158015906105d15750428160010154115b156105f757806001015460405163102a801160e11b81526004016100c891815260200190565b60006106038342610a59565b905061061a6001600160a01b03861633308761082f565b8154610627908590610a59565b82556001820181905560408051858152602081018390526001600160a01b0387169133917ff5681f9d0db1b911ac18ee83d515a1cf1051853a9eae418316a2fdf7dea427c5910160405180910390a35050505050565b6106856107d9565b33600090815260208181526040808320838052909152812080549091036106bf57604051630686827b60e51b815260040160405180910390fd5b80600101544210156106f357600181015460405163104d109160e21b815260048101919091524260248201526044016100c8565b80546000808355604051339083908381818185875af1925050503d8060008114610739576040519150601f19603f3d011682016040523d82523d6000602084013e61073e565b606091505b50509050806107855760405162461bcd60e51b8152602060048201526013602482015272115512081d1c985b9cd9995c8819985a5b1959606a1b60448201526064016100c8565b60405182815260009033907fd1c19fbcd4551a5edfb66d43d2e337c04837afda3482b42bdf569a8fccdae5fb9060200160405180910390a35050506107d76001600080516020610a6d83398151915255565b565b6107e161086b565b6002600080516020610a6d83398151915255565b610802838383600161089b565b61082a57604051635274afe760e01b81526001600160a01b03841660048201526024016100c8565b505050565b61083d848484846001610901565b61086557604051635274afe760e01b81526001600160a01b03851660048201526024016100c8565b50505050565b600080516020610a6d833981519152546002036107d757604051633ee5aeb560e01b815260040160405180910390fd5b60405163a9059cbb60e01b60008181526001600160a01b038616600452602485905291602083604481808b5af1925060016000511483166108f55783831516156108e8573d6000823e3d81fd5b6000873b113d1516831692505b60405250949350505050565b6040516323b872dd60e01b60008181526001600160a01b038781166004528616602452604485905291602083606481808c5af192506001600051148316610961578383151615610954573d6000823e3d81fd5b6000883b113d1516831692505b60405250600060605295945050505050565b80356001600160a01b038116811461098a57600080fd5b919050565b600080604083850312156109a257600080fd5b6109ab83610973565b91506109b960208401610973565b90509250929050565b6000602082840312156109d457600080fd5b5035919050565b6000602082840312156109ed57600080fd5b6109f682610973565b9392505050565b600080600060608486031215610a1257600080fd5b610a1b84610973565b95602085013595506040909401359392505050565b634e487b7160e01b600052601160045260246000fd5b818103818111156102b9576102b9610a30565b808201808211156102b9576102b9610a3056fe9b779b17422d0df92223018b32b4d1fa46e071723d6817e2486d003becc55f00a2646970667358221220be9be18f397d2eb9fe730d57233ad634a62a636f2ee5a44a9a94c1c57077775a64736f6c63430008140033",
  "linkReferences": {},
  "deployedLinkReferences": {}
}